:020000040000FA
:10000000A8020010690100007101000073010000E6
:100010007501000077010000790100000000000078
:100020000000000000000000000000007B01000054
:100030007D010000000000007F0100008101000040
:1000400083010000830100008301000083010000A0
:100050008301000083010000830100008301000090
:100060008301000083010000830100008301000080
:100070008301000083010000830100008301000070
:100080008301000083010000830100008301000060
:1000900083010000830100002708000083010000A5
:1000A0008301000083010000830100008301000040
:1000B0008301000083010000830100008301000030
:1000C00083010000830100008301000000F002F8BA
:1000D00000F03AF80AA090E8000C82448344AAF1A8
:1000E0000107DA4501D100F02FF8AFF2090EBAE8A6
:1000F0000F0013F0010F18BFFB1A43F0010318475C
:10010000F412000014130000103A24BF78C878C11C
:10011000FAD8520724BF30C830C144BF04680C600D
:10012000704700000023002400250026103A28BF55
:1001300078C1FBD8520728BF30C148BF0B60704759
:100140001FB51FBD10B510BD00F0A6F81146FFF792
:10015000F7FF00F0D2FB00F0C4F803B4FFF7F2FFA2
:1001600003BC00F021FC0000094880470948004713
:10017000FEE7FEE7FEE7FEE7FEE7FEE7FEE7FEE757
:10018000FEE7FEE704480549034A054B70470000B7
:10019000A9040000CD000000A8000010A802001073
:1001A000A800001053EA020C00F069802DE9F04B22
:1001B0004FF00006002B1FBFB3FA83F503FA05F4D6
:1001C00024FA05F65E4012BF1643B2FA82F502FA2F
:1001D00005F4C5F120051EBF22FA05FC44EA0C0413
:1001E000203556EA044C4FEA144418BF641C4FF003
:1001F00000084FF00009904271EB030C39D300293D
:1002000019BFB1FA81F701FA07F6B0FA80F700FAE0
:1002100007F6C7F120071EBF20FA07FC46EA0C06C6
:100220002037B6FBF4FCA7EB0507103F07F01F0BC8
:10023000CBF120060CFA0BFB2CFA06F644BFB346B2
:100240000026202FA4BF5E464FF0000B5BEA060C91
:1002500008BF4FF0010B19EB0B09ABFB027C48EB1D
:100260000608C01B06FB02CC0BFB03CC71EB0C0198
:10027000C1E70B46024641464846BDE8F08B13B540
:100280004FF000004FF00001AFF30080BDE81C40CC
:100290007047704770477047754600F029F8AE46C2
:1002A00005006946534620F00700854618B020B582
:1002B000FFF768FFBDE820404FF000064FF0000751
:1002C0004FF000084FF0000B21F00701AC46ACE8FE
:1002D000C009ACE8C009ACE8C009ACE8C0098D466B
:1002E00070470446AFF300802046FFF736FF00005A
:1002F000004870474800001070470000FFFFFFFFF4
:100300002DE9F047B1480068C0F3016003287CD1B3
:10031000AF48006810F0030006D0012833D002284F
:100320005FD003282ED100E000BFA8480068C0F3CA
:10033000074000F101044FF00201A648D0F8880000
:10034000C0F30E0000F10100A1FB0001A24B4FF031
:10035000000CA0FB037901FB039100FB0C1122466A
:1003600063463846FFF71EFF05469C480068C0B24A
:1003700000F1010422464FF000032846FFF712FF68
:10038000974908605DE091480068C0F3074000F1BC
:1003900001044FF002018F48D0F88800C0F30E002E
:1003A00000F10100A1FB00108E4A4FF0000CA1FBF0
:1003B000027900FB029001FB0C012246634638469D
:1003C000FFF7F0FE054685480068C0B200F1010461
:1003D00022464FF000032846FFF7E4FE80490860FC
:1003E0002FE07A480068C0F3074000F101044FF0A5
:1003F00002017848D0F88800C0F30E0000F1010037
:10040000A1FB00124FF4004000E01BE04FF000039E
:10041000A1FB007902FB009001FB03012246384654
:10042000FFF7C0FE05466D480068C0B200F1010448
:1004300022464FF000032846FFF7B4FE68490860E3
:1004400000BF2FE06248006810F0030006D00128CA
:1004500010D0022819D0032823D100E000BF5F4844
:100460000068C0B200F101005B49B1FBF0F05C49EB
:10047000086016E059480068C0B200F1010059490F
:10048000B1FBF0F0564908600BE054480068C0B278
:1004900000F101004FF40041B1FBF0F05049086059
:1004A00000BF00BFBDE8F08720204F4908604948E1
:1004B000D0F8A00110F0200F05D000BF4A48006816
:1004C00010F0400FFAD00320444908604FF00000BC
:1004D0004049C1F8A801454908604FF001003C4976
:1004E00008604348434908604FF0AA004249086049
:1004F0004FF0550008604FF00100404908604FF090
:10050000AA003D4908604FF055003249C1F88C00FF
:1005100000BF2E48006810F0806FFAD003203749E2
:1005200008604FF0AA002B49C1F88C004FF055002D
:100530003149086000BF2548006800F04070B0F104
:10054000407FF8D123202E4908604FF0AA002149AE
:10055000C1F8AC004FF055002A4908604FF0010087
:10056000294908604FF0AA00264908604FF055005D
:100570001849C1F8AC0000BF2448006810F4806F2F
:10058000FAD00320204908604FF0AA001149C1F8B1
:10059000AC004FF055001B49086000BF1B480068C5
:1005A00000F44070B0F5407FF8D11948194908604F
:1005B0004FF000000749C1F8C8010846006820F460
:1005C000704040F4804008607047000088C00F40D1
:1005D0000CC10F4000C00F4000093D0004C10F4096
:1005E00000000010001BB700A0C10F40ACC10F40BD
:1005F0006300050084C00F408CC00F4080C00F40D6
:10060000A4C00F40ACC00F40A0C00F40A8C00F4016
:10061000DE872804C4C00F40002100E0491C81424D
:10062000FCD370474FF0F060CC49C8614FF00060D8
:10063000C8614000C861704700B5FFF7F3FFC848C4
:100640000068C64948614FF00060C8614000886199
:100650001920FFF7E1FF4FF08050C049C86100BD8D
:1006600000B5C048007800F0F000BD4908600846B9
:100670000088C0040860FFF7DFFFBA48007800F088
:100680000F00B749086008460088C0050860FFF7FA
:10069000D3FF4FF47A70FFF7BFFF00BD00B5B2483B
:1006A000C068B2490840B049C860AC48006840F032
:1006B000F060AA4908600846006840F000600860E1
:1006C0000846006840F080500860FFF7ABFF4FF429
:1006D0004860FFF7A1FF4FF0C070A1490860FFF725
:1006E000ABFF47F23050FFF797FF4FF0C0709C49C7
:1006F0000860FFF7A1FF47F23050FFF78DFF4FF082
:10070000C07097490860FFF797FF47F23050FFF736
:1007100083FF4FF0807092490860FFF78DFF47F22A
:100720003050FFF779FF28208E490860FFF798FFC7
:1007300047F23050FFF770FF0C208A490860FFF73E
:100740008FFF4FF44870FFF767FF06208549086068
:10075000FFF786FF4FF44870FFF75EFF01208149E5
:100760000860FFF77DFF42F21070FFF755FF802011
:100770007C490860FFF774FF4FF44870FFF74CFFA7
:1007800000BD00B5FFF74EFF75480068734948612A
:100790004FF000608861400088611920FFF73CFF3E
:1007A0004FF080506D49C86100BD00B56D480078BC
:1007B00000F0F0006A49086008460088C00408603C
:1007C000FFF7DFFF6748007800F00F00644908601A
:1007D00008460088C0050860FFF7D3FF4FF47A7021
:1007E000FFF71AFF00BD00B501205E490860FFF762
:1007F00037FF42F21070FFF70FFF00BD10B504463F
:1008000000230CE0E05C57490860FFF7CEFF5B1C5B
:10081000102B04D1C02053490860FFF721FFE05C92
:100820000028EFD110BD2DE9F05F5148006B00F0BA
:100830003000504908600846007800F01000096850
:10084000884206D14A48006AC0F30B004A49086052
:1008500005E04748406AC0F30B0048490860464835
:10086000006800F04EFB82464FF06632444B00F0C9
:1008700097FB80460022434B00F0BEF9064600F08D
:1008800099F8044600F010FB3B4908603B480068BB
:1008900000F037FB06464FF06632394B00F080FB24
:1008A00004460022374B00F0A7F9804600F082F89A
:1008B000824600F0F9FA314908602F4909682F4A49
:1008C0001268881A01D4014600E041422E4A1160A4
:1008D0002E4811460968405C2D4908700020487078
:1008E000C02020490860FFF7BBFE2A48FFF794FEAE
:1008F0002748FFF783FFBDE8F09FFFF7CFFE4FF0DB
:1009000070401949C8602448006840F48050234969
:10091000C1F8C4002248164908604FF03000C86092
:100920004FF001001F4908604FF080000D4908603A
:10093000FFF796FE1748FFF76FFE1548FFF75EFFBB
:1009400016200121814042094FF0E02303EB82028F
:10095000C2F8001100BF00BFFEE7000000C0092080
:10096000080000100400001000C00240FF3F00FC1F
:10097000004003402C000010180000101C00001064
:1009800066660A400000B040380000100C000010FD
:100990002000001080380100C4C00F4000C00F408C
:1009A000300021004400001001491820ABBEFEE7D2
:1009B000260002002DE9F041C1F30A52A2F2FF36EF
:1009C0002F4A304B0D460446142E2FDA002E12DA31
:1009D00000F05EF80022134600F0E0FB4CD2002D40
:1009E000BCBF4FF00045002446DB55EA040018BFA9
:1009F000254D41D018E0DFF894C02CFA06F705EA3F
:100A0000070C5CEA040C08BFBDE8F08100F040F878
:100A10000022134600F0C2FB2ED2002D03DD4FF45E
:100A20008010F0400544BD43002425E0332EC8BFAC
:100A3000BDE8F081A6F1140C4FF0FF3727FA0CF750
:100A40003C4208BFBDE8F08100F0DEFB0022134607
:100A500000F0A4FB10D2002D0DDD142E08BF6D1C7C
:100A600009D0C6F13400012101FA00F02044A0426F
:100A700038BF6D1C0446BC4329462046BDE8F081C2
:100A80009C7500883CE4377E0000F03FFFFF0F00BC
:100A900010B591EA030F48BF83F0004300F1C8830B
:100AA000841A71EB030C05D2121943EB0C03001BE3
:100AB00061EB0C01DFF824E14FEA1154A4EB135C65
:100AC0001EEA430F18BF9EEA445F73D023EA0E0369
:100AD000DCF1200E21EA045143F4801332D322FAD0
:100AE0000CFE10EB0E0023FA0CFE41EB0E01CCF1D4
:100AF000200E03FA0EFE10EB0E0051F10001B1F5CD
:100B0000801FCCF1200E32D201EB045112FA0EF20A
:100B1000BDE8104058BF7047401C38BF5FEA420232
:100B200018BF7047002814BF20F0010041F10001F8
:100B30004FEA410313F5001F38BF7047A1F1C041D0
:100B400000F026BB012A43EB0302ACF1200CDCF1E0
:100B50001F0E32BF4FF0000E23FA0CF310EB030010
:100B600041EB0451B4EB115FD0D0A1EB045101F57E
:100B7000801149085FEA300001EB04510ED350F1B7
:100B8000000038BF12FA0EFE08D1BDE81040C9E7D8
:100B9000401C38BF5FEA4202CAD1C3E7BDE810403B
:100BA0004FEA410313F5001F38BF7047A1F1C04160
:100BB00000F0EEBA9EEA445F08D011EA5E0FBDE88D
:100BC000104004BF01F0004100207047BDE8104014
:100BD00070B500F08FFA00BF64FBBE3E0000E0FF7E
:100BE000491058BFC1F140415B1058BFC3F14043A9
:100BF0008B42EFF3008070472DE9C04130B4DFF83D
:100C0000A0C23CEA111418BF3CEA131400F0EC80B7
:100C100081EA03051CEA111444EAD57418BF1CEAE2
:100C2000131500F0C780A4EB05044FF0004545EA1A
:100C3000C12145EAC32341EA505143EA525304F12A
:100C40007F74994204F500344FEAC0204FEAC22273
:100C500008BF904200F09C804FEA13650FF24016E7
:100C6000765D4FEA134506FB05F7C7F1807706FB73
:100C700007F74FEAD737A7FB03687642C8F58038F5
:100C8000A7FB06CE38BFA8F1010807FB08E64FF026
:100C9000000EA6FB028CE6FB03CEDCF1000CCEF1CD
:100CA000004E38BFAEF1010EA6FB0C584FF0000706
:100CB0004FF00005E6FB0E87A1FB08C6A0FB07CEA0
:100CC00016EB0E0645F10005E1FB076515F1E04E58
:100CD0007EBFA4F580345FEA46066D4116F18007B9
:100CE00045F100054FEA17274FEA066647EA056710
:100CF000A6F1DE46B6F1805F4FEA15251FD93846CA
:100D000024F0010C05EBC471BCF1FE6F01EB0C117A
:100D100002D8F0BCBDE8008124425CBF01F5801E12
:100D20009EEAC47F02D4F0BCBDE80081244238D4DE
:100D3000F0BCA1F1C041BDE8004100F029BA4FEA82
:100D4000D22242EA43524FEAD323A7FB02864FEA5C
:100D5000D02040EA415007FB03661EEA0E0F4FEA1F
:100D6000D12105FB026658BFA6EB0056B6EB005634
:100D70004FEA520E4EEAC37E18EB0E0E56EB530EA0
:100D8000BDD518EB02085E417F1C55F10005B6E7A2
:100D90004FF480154FF000074FF000064FF00008A9
:100DA000ADE7F0BC4FF0000001F1C04101F000419F
:100DB000BDE8008111EA0C1F0CEA131500D00CE00D
:100DC00013EA0C1F00F025804FF00000F0BC81EA10
:100DD000030101F00041BDE80081F0BCBDE8004125
:100DE00081EA030100F0D4B9F0BCBDE8004170B560
:100DF00000F080F9097EFC3E00F007B881EA0301AB
:100E00004FF0000001F00041704781EA030100F05B
:100E1000BFB9F0BCBDE800414FF000002149704768
:100E2000FFFDFBF9F7F5F4F2F0EEEDEBE9E8E6E4AF
:100E3000E3E1E0DEDDDBDAD8D7D5D4D3D1D0CFCD36
:100E4000CCCBCAC8C7C6C5C4C2C1C0BFBEBDBCBB6F
:100E5000BAB9B8B7B6B5B4B3B2B1B0AFAEADACAB6A
:100E6000AAA9A8A8A7A6A5A4A3A3A2A1A09F9F9E44
:100E70009D9C9C9B9A9999989797969595949393F6
:100E8000929191908F8F8E8E8D8C8C8B8B8A89898D
:100E90008888878786858584848383828281818010
:100EA0000000FF070000F87F4FEA1153A3F58063AD
:100EB000D3F11E03A8BFD3F1200C08DB4FF0004292
:100EC00042EAC12252EA505232FA03F07047094214
:100ED0000BD4102BC4BF0020704703F5787CBCF105
:100EE000FF3F05D04FF0FF3070474FF000007047D4
:100EF00070B500F0FFF800BF4992248000207047D1
:100F0000F0E7B0FA80F310FA03F10AD0C3F11D0341
:100F100003F580634FEA41504FEA035202EBD121BF
:100F200070474FF00000704751EA030C17D41CF5CE
:100F3000801F58BFBCF5801F00F10680994218BF82
:100F4000704708BF9042704707D711F5801F58BF00
:100F500013F5801F19D499427047894270471CF5D8
:100F6000801F08D5BCF5801FF7D58B4218BF70478E
:100F700008BF824270474FF4001C1CEB410F38BF82
:100F80001CEB430F01D28B42704770B500F0B2F8F2
:100F9000922449004FF000514FF08053FFF720BEDC
:100FA000DFF848C170B51CEA111E1EBF1CEA1315FC
:100FB0009EEA0C0F95EA0C0F00F06F8081EA0304A3
:100FC00023EA4C134EEAD47E21EA4C1141F48011FD
:100FD00043F48013AE44A1FB024CA0FB0365AEF1C9
:100FE0007F7E361955EB0C05A1FB034C4CF1000339
:100FF000A0FB021C16EB0C06654153F100030942ED
:1010000018BF46F0010613F4007F0BD14FEA0331FD
:101010004FEA0530340341EA155140EA16506FF0AB
:1010200003020AE04FEAC3214FEAC520F40241EA75
:10103000555140EA56506FF0020202EB2E4201EB8E
:10104000025585EACE710AD05FEA440C18BF24F03D
:10105000004450F1000041F1000120EAD47040F258
:10106000FE7C624500D270BDA84214BF4FF08044A0
:101070004FF04044002E08BF0024BEF1806FA8BF8F
:10108000A1F1C041BDE8704080F282804FF00000C5
:1010900001F1C04101F0004170479EEA0C0F0CEADB
:1010A000131518BF95EA0C0F06D04FF0000081EA27
:1010B000030E0EF0004170BD00F01CF88900013EE7
:1010C00000F007B800F009B84FEA430C5FEA5C5C37
:1010D00008D081EA030100F05BB84FEA410C5FEAF7
:1010E0005C5CF6D14FF00000014970470000FF073B
:1010F0000000F87F0EF1020E2EF0030E5EF8046B76
:10110000364205D4012A43EB030515F5001F12D81A
:10111000012841EB010C1CF5001F0CD80ED14FEA41
:10112000D17C15F5001F0CEB4C0C0CF1020C08BF28
:101130004CEBD37C04E04FF0080C01E04FEAD37C89
:101140000CEB4C0526FA05F606F00706B6F1040C82
:1011500006D20EEB860CBDE870404CF0010C6047E7
:10116000DFE80CF0090B02024FF000414FF00000E5
:10117000A1F5002170BD19461046012851EB01046C
:1011800018BFD4F5001484BF002001F0004170BDE9
:101190000808A0F500114FEA3101704753EA010C2D
:1011A00017D41CF5801F58BFBCF5801F00F10680C6
:1011B0008B4218BF704708BF8242704707D713F5AC
:1011C000801F58BF11F5801F19D48B4270479B4276
:1011D00070471CF5801F08D5BCF5801FF7D59942D4
:1011E00018BF704708BF904270474FF4001C1CEBBB
:1011F000430F38BF1CEB410F01D2994270470FB427
:101200000CBC03BCFFF7C1BE91EA030F10B581F01F
:1012100000413FF545AC83F0004300F009B8000001
:1012200010B591EA030F48BF83F000433FF538AC97
:10123000841A71EB030C07D212198CF0004C43EBAB
:101240000C03001B61EB0C01DFF8A4E14FEA115421
:10125000A4EB135C1EEA430F18BF9EEA445F00F044
:10126000B08023EA6E03524221EA0451C3EB6E03BD
:1012700038BF5B1EDCF1200E25D322FA0CFE10EBEA
:101280000E0043FA0CFE41EB0E01CCF1200E03FAE6
:101290000EFE10EB0E0051F10001CCF1200E29D40E
:1012A00012FA0EF201EB0451BDE8104058BF70472E
:1012B000401C1CBFB2F1004F704700280CBF491CF6
:1012C00020F00100704712EB020E43EB030218BF3F
:1012D0004FF0010E4EEA4202ACF1200CDCF11E0E82
:1012E00054D943FA0CFE10EB0E0051F1FF31CCF152
:1012F0001E0ED5D50EF1010E12FA0EFE404141EB45
:10130000010101EB445C5FEA5C5C10D910EBDE701C
:1013100001EB045138BFBEF1004FBDE8104018BFCB
:10132000704700280CBF491C20F00100704730D2E4
:101330004FEAD42C11F5001124F400641BD0B1FA4B
:1013400081F20B3AA41AA41ED2F12003914030FA84
:1013500003F31943904001EBCC71002C01EB0451D5
:10136000BDE81040A8BF704701F1C0414FF0000038
:1013700001F000417047B0FA80F310FA03F100D198
:1013800010BDE41A173C4805C90AE4E701EB045113
:1013900010BD491001EB0451BDE810404FEA300088
:1013A00002E04FF0000170474A0008BF0042F8D049
:1013B000B2F5001F28BF704701F000414FF0000058
:1013C00070479EEA445F07D011EA5E0FBDE8104007
:1013D00004BF002100207047BDE8104070B5FFF742
:1013E00089FE00BF40DFF63E83F0004110467047A3
:1013F0000000E0FF1414000000000010480000008E
:10140000080100005C1400004800001060020000A9
:101410002401000000E1F5050000000000000000CC
:1014200030313233343536373839000000000000AF
:10143000000000004144432076616C7565000000A7
:10144000000000000000000000000000000000009C
:0C14500000000000000000000000000090
:04000005000001698D
:00000001FF
