:020000040000FA
:1000000060030010A1010000A9010000AB01000085
:10001000AD010000AF010000B101000000000000D0
:10002000000000000000000000000000B30100001C
:10003000B501000000000000B7010000B901000098
:10004000BB010000BB010000BB010000BB010000C0
:10005000BB010000BB010000BB010000BB010000B0
:10006000BB010000BB010000BB010000BB010000A0
:10007000BB010000BB010000BB010000BB01000090
:10008000BB010000BB010000BB010000BB01000080
:10009000BB010000BB010000BB010000BB01000070
:1000A000BB010000BB010000BB010000BB01000060
:1000B000BB010000BB010000BB010000BB01000050
:1000C000BB010000BB010000BB01000000F002F812
:1000D00000F03CF80AA090E8000C82448344AAF1A6
:1000E0000107DA4501D100F031F8AFF2090EBAE8A4
:1000F0000F0013F0010F18BFFB1A43F0010318475C
:100100002808000048080000103A24BF78C878C1C9
:10011000FAD8520724BF30C830C144BF04680C600D
:10012000704700000023002400250026103A28BF55
:1001300078C1FBD8520728BF30C148BF0B60704759
:100140001FB500F0C2FB1FBD10B510BD00F0C6FB0F
:100150001146FFF7F5FF00F066FB00F0B9F803B4B5
:10016000FFF7F2FF03BC00F0BDF800000B49D1F827
:1001700000C04A685CF8043B1068184442F8040B5D
:100180008C4528BFA1F1DC0C8A4228BFA1F1DC021A
:10019000C1F800C04A6020F000407047F80000102D
:1001A0000948804709480047FEE7FEE7FEE7FEE70B
:1001B000FEE7FEE7FEE7FEE7FEE7FEE70448054947
:1001C000034A054B70470000A9040000CD00000061
:1001D00060010010600300106001001053EA020C7F
:1001E00000F069802DE9F04B4FF00006002B1FBF97
:1001F000B3FA83F503FA05F424FA05F65E4012BF5C
:100200001643B2FA82F502FA05F4C5F120051EBFC5
:1002100022FA05FC44EA0C04203556EA044C4FEA65
:10022000144418BF641C4FF000084FF000099042BE
:1002300071EB030C39D3002919BFB1FA81F701FA28
:1002400007F6B0FA80F700FA07F6C7F120071EBFDD
:1002500020FA07FC46EA0C062037B6FBF4FCA7EBB5
:100260000507103F07F01F0BCBF120060CFA0BFB24
:100270002CFA06F644BFB3460026202FA4BF5E46E4
:100280004FF0000B5BEA060C08BF4FF0010B19EBB7
:100290000B09ABFB027C48EB0608C01B06FB02CC3B
:1002A0000BFB03CC71EB0C01C1E70B460246414648
:1002B0004846BDE8F08B13B54FF000004FF0000149
:1002C000AFF30080BDE81C4070477047704770472F
:1002D0000446AFF300802046FFF741FF0048704717
:1002E0000001001001491820ABBEFEE72600020005
:1002F000704700000000000000000000FFFFFFFF4B
:100300002DE9F047B1480068C0F3016003287CD1B3
:10031000AF48006810F0030006D0012833D002284F
:100320005FD003282ED100E000BFA8480068C0F3CA
:10033000074000F101044FF00201A648D0F8880000
:10034000C0F30E0000F10100A1FB0001A24B4FF031
:10035000000CA0FB037901FB039100FB0C1122466A
:1003600063463846FFF73AFF05469C480068C0B22E
:1003700000F1010422464FF000032846FFF72EFF4C
:10038000974908605DE091480068C0F3074000F1BC
:1003900001044FF002018F48D0F88800C0F30E002E
:1003A00000F10100A1FB00108E4A4FF0000CA1FBF0
:1003B000027900FB029001FB0C012246634638469D
:1003C000FFF70CFF054685480068C0B200F1010444
:1003D00022464FF000032846FFF700FF80490860DF
:1003E0002FE07A480068C0F3074000F101044FF0A5
:1003F00002017848D0F88800C0F30E0000F1010037
:10040000A1FB00124FF4004000E01BE04FF000039E
:10041000A1FB007902FB009001FB03012246384654
:10042000FFF7DCFE05466D480068C0B200F101042C
:1004300022464FF000032846FFF7D0FE68490860C7
:1004400000BF2FE06248006810F0030006D00128CA
:1004500010D0022819D0032823D100E000BF5F4844
:100460000068C0B200F101005B49B1FBF0F05C49EB
:10047000086016E059480068C0B200F1010059490F
:10048000B1FBF0F0564908600BE054480068C0B278
:1004900000F101004FF40041B1FBF0F05049086059
:1004A00000BF00BFBDE8F08720204F4908604948E1
:1004B000D0F8A00110F0200F05D000BF4A48006816
:1004C00010F0400FFAD00320444908604FF00000BC
:1004D0004049C1F8A801454908604FF001003C4976
:1004E00008604348434908604FF0AA004249086049
:1004F0004FF0550008604FF00100404908604FF090
:10050000AA003D4908604FF055003249C1F88C00FF
:1005100000BF2E48006810F0806FFAD003203749E2
:1005200008604FF0AA002B49C1F88C004FF055002D
:100530003149086000BF2548006800F04070B0F104
:10054000407FF8D123202E4908604FF0AA002149AE
:10055000C1F8AC004FF055002A4908604FF0010087
:10056000294908604FF0AA00264908604FF055005D
:100570001849C1F8AC0000BF2448006810F4806F2F
:10058000FAD00320204908604FF0AA001149C1F8B1
:10059000AC004FF055001B49086000BF1B480068C5
:1005A00000F44070B0F5407FF8D11948194908604F
:1005B0004FF000000749C1F8C8010846006820F460
:1005C000704040F4804008607047000088C00F40D1
:1005D0000CC10F4000C00F4000093D0004C10F4096
:1005E00000000010001BB700A0C10F40ACC10F40BD
:1005F0006300050084C00F408CC00F4080C00F40D6
:10060000A4C00F40ACC00F40A0C00F40A8C00F4016
:10061000DE872804C4C00F40002100E0491C81424D
:10062000FCD370474FF0F0609749C8614FF000600D
:10063000C8614000C861704700B5FFF7F3FF9348F9
:100640000068914948614FF00060C86140008861CE
:100650001920FFF7E1FF4FF080508B49C86100BDC2
:1006600000B58B48007800F0F00088490860084623
:100670000088C0040860FFF7DFFF8548007800F0BD
:100680000F008249086008460088C0050860FFF72F
:10069000D3FF4FF47A70FFF7BFFF00BD00B57D4870
:1006A000C0687D4908407B49C8607748006840F0D1
:1006B000F060754908600846006840F00060086016
:1006C0000846006840F080500860FFF7ABFF4FF429
:1006D0004860FFF7A1FF4FF0C0706C490860FFF75A
:1006E000ABFF47F23050FFF797FF4FF0C0706749FC
:1006F0000860FFF7A1FF47F23050FFF78DFF4FF082
:10070000C07062490860FFF797FF47F23050FFF76B
:1007100083FF4FF080705D490860FFF78DFF47F25F
:100720003050FFF779FF282059490860FFF798FFFC
:1007300047F23050FFF770FF0C2055490860FFF773
:100740008FFF4FF44870FFF767FF0620504908609D
:10075000FFF786FF4FF44870FFF75EFF01204C491A
:100760000860FFF77DFF42F21070FFF755FF802011
:1007700047490860FFF774FF4FF44870FFF74CFFDC
:1007800000BD00B5FFF74EFF404800683E49486194
:100790004FF000608861400088611920FFF73CFF3E
:1007A0004FF080503849C86100BD00B53848007826
:1007B00000F0F0003549086008460088C004086071
:1007C000FFF7DFFF3248007800F00F002F49086084
:1007D00008460088C0050860FFF7D3FF4FF47A7021
:1007E000FFF71AFF00BD00B5012029490860FFF797
:1007F00037FF42F21070FFF70FFF00BD10B504463F
:1008000000230CE0E05C22490860FFF7CEFF5B1C90
:10081000102B04D1C0201E490860FFF721FFE05CC7
:100820000028EFD110BD08B5FFF738FF8020184928
:100830000860FFF715FF4FF44870FFF7EDFE17480B
:10084000FFF7DCFF1FE01048406D10F4805F1AD105
:10085000FFF78CFC062190FBF1F201FB1200401C1B
:10086000C0B200909DF800003030C0B20090C020AF
:1008700007490860FFF7F4FE4FF44870FFF7CCFE1D
:100880006846FFF7BBFFDEE700C009200800001044
:100890000400001000C00240FF3F00FC0C000010EC
:1008A0000B4910B5A1F17C020A4CC2E9371237217D
:1008B00006E000EB104342F82130074B00FB0340F9
:1008C0000B1EA1F10101F4DC10BD0120E8E70000DE
:1008D00098000010E119D666CD0D01007546FFF7AE
:1008E000FDFCAE4605006946534620F007008546EC
:1008F00018B020B5FFF762FCBDE820404FF00006BD
:100900004FF000074FF000084FF0000B21F00701F7
:10091000AC46ACE8C009ACE8C009ACE8C009ACE83A
:10092000C0098D4670470000480900000000001013
:100930001C00000008010000640900001C000010F9
:10094000440300002401000000E1F5050000000060
:10095000000000004469636520526573756C740083
:040960000000000093
:04000005000001A155
:00000001FF
