:020000040000FA
:10000000A802001081010000890100008B0100009E
:100010008D0100008F010000910100000000000030
:10002000000000000000000000000000930100003C
:1000300095010000000000009701000099010000F8
:100040009B0100009B0100009B0100009B01000040
:100050009B0100009B0100009B0100009B01000030
:100060009B0100009B0100009B0100009B01000020
:100070009B0100009B0100009B0100009B01000010
:100080009B0100009B0100009B0100009B01000000
:100090009B0100009B0100009B0100009B010000F0
:1000A0009B0100009B0100009B0100009B010000E0
:1000B0009B0100009B0100009B0100009B010000D0
:1000C0009B0100009B0100009B01000000F002F872
:1000D00000F047F80AA090E8000C82448344AAF19B
:1000E0000107DA4501D100F03CF8AFF2090EBAE899
:1000F0000F0013F0010F18BFFB1A43F0010318475C
:10010000CC1F0000EC1F0000103A24BF78C878C153
:10011000FAD8520724BF30C830C144BF04680C600D
:10012000704700000023002400250026103A28BF55
:1001300078C1FBD8520728BF30C148BF0B60704759
:10014000662900F0D880002070471FB500F0CAF87B
:1001500004000020002101F0BFFBE0601FBD10B5CE
:1001600010BD00F071FF1146FFF7EFFF00F068FAD5
:1001700000F08FFF03B4FFF7F2FF03BC00F0D0FFE5
:100180000948804709480047FEE7FEE7FEE7FEE72B
:10019000FEE7FEE7FEE7FEE7FEE7FEE70448054967
:1001A000034A054B70470000A9040000CD00000081
:1001B000A8000010A8020010A800001053EA020CCA
:1001C00000F069802DE9F04B4FF00006002B1FBFB7
:1001D000B3FA83F503FA05F424FA05F65E4012BF7C
:1001E0001643B2FA82F502FA05F4C5F120051EBFE6
:1001F00022FA05FC44EA0C04203556EA044C4FEA86
:10020000144418BF641C4FF000084FF000099042DE
:1002100071EB030C39D3002919BFB1FA81F701FA48
:1002200007F6B0FA80F700FA07F6C7F120071EBFFD
:1002300020FA07FC46EA0C062037B6FBF4FCA7EBD5
:100240000507103F07F01F0BCBF120060CFA0BFB44
:100250002CFA06F644BFB3460026202FA4BF5E4604
:100260004FF0000B5BEA060C08BF4FF0010B19EBD7
:100270000B09ABFB027C48EB0608C01B06FB02CC5B
:100280000BFB03CC71EB0C01C1E70B460246414668
:100290004846BDE8F08B13B54FF000004FF0000169
:1002A000AFF30080BDE81C40704700000FB41CB5E0
:1002B000074B06AA7B4469460090059800F0B9FDFB
:1002C0000020694600F009F81CBC5DF814FB000032
:1002D000230000007047704770470A6802F8010B5E
:1002E0000A60704700487047680000100048704777
:1002F00048000010704700F05CBC0000FFFFFFFFEB
:100300002DE9F04781480068C0F3016003287CD1E3
:100310007F48006810F0030006D0012833D002287F
:100320005FD003282ED100E000BF78480068C0F3FA
:10033000074000F101044FF002017648D0F8880030
:10034000C0F30E0000F10100A1FB0001724B4FF061
:10035000000CA0FB037901FB039100FB0C1122466A
:1003600063463846FFF72AFF05466C480068C0B26E
:1003700000F1010422464FF000032846FFF71EFF5C
:10038000674908605DE061480068C0F3074000F11C
:1003900001044FF002015F48D0F88800C0F30E005E
:1003A00000F10100A1FB00105E4A4FF0000CA1FB20
:1003B000027900FB029001FB0C012246634638469D
:1003C000FFF7FCFE054655480068C0B200F1010485
:1003D00022464FF000032846FFF7F0FE5049086020
:1003E0002FE04A480068C0F3074000F101044FF0D5
:1003F00002014848D0F88800C0F30E0000F1010067
:10040000A1FB00124FF4004000E01BE04FF000039E
:10041000A1FB007902FB009001FB03012246384654
:10042000FFF7CCFE05463D480068C0B200F101046C
:1004300022464FF000032846FFF7C0FE3849086007
:1004400000BF2FE03248006810F0030006D00128FA
:1004500010D0022819D0032823D100E000BF2F4874
:100460000068C0B200F101002B49B1FBF0F02C494B
:10047000086016E029480068C0B200F1010029496F
:10048000B1FBF0F0264908600BE024480068C0B2D8
:1004900000F101004FF40041B1FBF0F02049086089
:1004A00000BF00BFBDE8F08720201F490860194841
:1004B000D0F8A00110F0200F05D000BF1A48006846
:1004C00010F0400FFAD00320144908601748114972
:1004D000C1F8A8011648174908604FF001000C49FF
:1004E00008604FF00400A1F10401086012481349AC
:1004F00008604FF480700749C1F8C80108460068D9
:1005000020F4704040F480400860704788C00F407D
:100510000CC10F4000C00F4000093D0004C10F4056
:1005200000000010001BB700A0C10F4055515155ED
:1005300055545554ACC10F40DE872804C4C00F4049
:1005400002214FF0402251600021D160411E916193
:1005500001215161516000BF4FF04021096811F045
:10056000010FF9D000214FF04022516001211160AC
:10057000704700B503464FF47A7103FB01F0FFF7B3
:10058000DFFF00BD00204FF040210867AC48C86085
:1005900002204860704702204FF04021486001204F
:1005A0004860704710B500204FF0402148608868CF
:1005B00001F09CFC10BD0021A24A116004E0A14999
:1005C0000968491C9F4A11609E4909688142F6DB0F
:1005D00070479D490988C9059C4A51619C49096831
:1005E00019B94FF00061D16103E04FF00061974A03
:1005F00091614FF08051954A9161002000E0401CCC
:100600003228FCDB4FF08051904AD161002000E09D
:10061000401C42F210718842FADB704700B58D48E9
:100620000078C0F3031088490860FFF7D2FF8948BB
:10063000007800F00F0084490860FFF7CAFF00BD92
:100640008AB000BF2422844901A800F0AAF9FFF76C
:100650002BFFFFF755FEFFF795FF8048006820F459
:100660007F607E4908600846006820F040400860CE
:100670000846406820F00F0048607448006840F465
:100680008100724908600846006A086208460068EE
:1006900040F47F60086071484068704948606B486A
:1006A000006840F0FC506949086000206849086013
:1006B0006B4908601CE001A86949096850F82100ED
:1006C00064490860FFF7AAFF00206649086004E05B
:1006D00064480068401C634908606248006847F24B
:1006E00030518842F4DB5E480068401C5C49086079
:1006F0005B4800680928DEDB0020594908600120BA
:10070000594908605148C06940F400404F49C861E8
:1007100094E04FF400604D4988616FF40040086137
:100720000846406940F4004048610A20FFF708FF8E
:100730004648C06940F400404449C861002008614F
:1007400000BF4248406910F4803FFAD0FFF723FF12
:1007500000BF3E48406910F4803FFAD1FFF722FF06
:10076000044601F0A7FB414908600846006801F013
:1007700053FA06463E4A3F4B01F066FA0446002211
:100780004FF0804301F0F0F8804601F0BBF83A49A1
:1007900008600846006801F055FB044622460B46F7
:1007A00036A13A48FFF782FD012029490860002060
:1007B0002B49086026490860012026490860FFF798
:1007C0002DFF0120224908601AE0304824490968B9
:1007D000405C20490860FFF721FF002021490860A4
:1007E00004E020480068401C1E4908601D4800685D
:1007F000B0F5967FF5DB1A480068401C1849086080
:10080000224817490968405C0028DED120491A486F
:10081000006801F07FFB07D24FF47F600B498861CD
:100820004FF48000886106E04FF47F600749C8619B
:100830004FF48000C8616420FFF7BDFE69E7000047
:10084000FF1AB700300000100400001000C009209B
:100850000C0000101C0000101420000000C002401A
:1008600020000010240000100800001010000010EC
:100870009AB1683A3B196C3F140000102044697328
:1008800074616E63653A20252E33660034000010D3
:100890000000E0402DE9F0474FF0000A8946044689
:1008A000C0F820A02046E1688847002876D0252897
:1008B00006D0D4E901219047206A401C2062F1E76C
:1008C000E168204600258847C4F81CA0064600279A
:1008D000C4F818A02A2E09D0304600F0F6FF38B32D
:1008E00004EB8708303EC8F8186019E059F8041B7B
:1008F000204604EB87029161E1688847012F064694
:1009000018D1E069002820DA25F020051DE0D8F88C
:10091000180000EB800006EB40003038C8F81800E3
:100920002046E1688847064600F0CFFF0028EED158
:10093000012F0AD02E2E08D12046E16888477F1C5F
:100940000646022F45F02005C4DBA069002803DA23
:10095000404245F00105A061E80701D025F01005EF
:10096000B6B1A6F14100192802D8203645F4006539
:100970004A463146204625604D46FFF7E1FB58B117
:10098000012806D0ED1D25F0070000F1080989E7D0
:1009900004E005F1040985E730468AE7206ABDE8EE
:1009A000F08710B5203AC0F00B80B1E81850203A1B
:1009B000A0E81850B1E81850A0E81850BFF4F5AFFF
:1009C0005FEA027C24BFB1E81850A0E8185044BF89
:1009D00018C918C0BDE810405FEA827C24BF51F8F6
:1009E000043B40F8043B08BF7047D20728BF31F8EA
:1009F000023B48BF11F8012B28BF20F8023B48BF3B
:100A000000F8012B704770472DE9FF4F0C461E463A
:100A10004FF0FF378BB0D2E90001DDF860800A901B
:100A20008A46C1F30A5505B93D46002108464FF0F4
:100A30000000BAF1000F00F4400005DA00EB80007E
:100A40004FF4400101EA50004FEA9059B9F1010F0B
:100A500000DDB9460A9850EA4A000ED044F610501C
:100A6000A5F2FF3545432F14B8F1000F1ED0754293
:100A7000291E1EDDC9F100021CE0B8F1010F4FF084
:100A8000000001D0302103E0F24305E02154401C76
:100A9000B042FBDB30460022002121540B99C1F803
:100AA0000880C1E900200FB0BDE8F08FBD1B6D1CB0
:100AB000DEE74A4600DA694206A800F053FA06ABC0
:100AC00007CB03AB07C350460A9900F02FFB8DE814
:100AD0000700A0F500501F3800900398002D09DD95
:100AE00042F21F014A46084403A90390684600F0F9
:100AF0008EFD08E0A0F500504A461F3803A9039078
:100B0000684600F098FD8DE807000004000C03D053
:100B10004FF0FF30410800E01046B8F1000F03D05D
:100B20000022009215461FE0751E06D400F094F9CD
:100B300002F1300262556D1EF8D5B346012208431A
:100B400002D000227F1C04E02078302801D100224E
:100B50007F1E002A099787D01DE0112D07DA00F0CB
:100B60007BF9303262556D1C50EA0102F5D1084321
:100B70000FD10021681E05E0235C625C6354491CB0
:100B80002254401E8142F7DBAB46A81B401E099051
:100B900001E0009848B1002004F80B000B98099A76
:100BA000C0F80880C0E9002B7DE711264FF000084F
:100BB0005AE72DE9F04F88460446D21D22F007017E
:100BC00091B0D1E90001CDE90A0100F06AFE0246C8
:100BD0000B98C00F01D02D2007E02068810701D5B8
:100BE0002B2002E0202101EAC000032A099001D055
:100BF000072A05DB03464146204600F073F90FE162
:100C00002078800601D5E06900E00620B8F1650F84
:100C1000814606D0B8F1660F18D0B8F1670F72D1CF
:100C200032E00020B9F1110F009001DB112301E047
:100C300009F101030AAA01A90CA8FFF7E5FEDDE905
:100C40000C70002609F10105834648E001204B465F
:100C500000904FF000470AAA01A90CA8FFF7D4FEA4
:100C6000DDE90DB00C995D46002618B909F10100C7
:100C700001EB0005B9EB050003D4C0F1FF3609F123
:100C80000105A5EB09002BE0B9F1010F01DA4FF0E6
:100C900001090020B9F1110F0090484601DD112330
:100CA00000E003460AAA01A90CA8FFF7ADFEDDE9A2
:100CB0000C704D4600268346207800070AD4AB45C9
:100CC00000DA5D4601A8012D04DD411911F8011C6F
:100CD000302907D04F4502DA17F1040F04DA01205A
:100CE000824610E06D1EEEE7002F02DCED1B3E4455
:100CF00003E0781CA84200DD0546A7EB060000F1E2
:100D0000010A4FF000472078000703D4AA4501DB11
:100D10004FF0FF3A0021B7F1004F0DF143088DF875
:100D2000431023D002202B23002F01DA7F422D23F2
:100D30004FF00A0C011EA0F1010000DC4FB197FB3F
:100D4000FCF10CFB11720F4602F1300208F8012D84
:100D5000F0E7A8F1010003702188090501D54521BC
:100D600000E06521A0F1010800F8011C09980FA915
:100D7000A1EB080707F1070700B1012000EB05010F
:100D800001EBEA70A1693844A1EB0000A0F1010079
:100D9000A0612078C00602D42046AFF300800998F5
:100DA00030B1D4E901219047206A00F101002062AE
:100DB0002078C00620D52046AFF300801CE0002E2E
:100DC00004DBB34502DD01A8805D00E03020D4E9FA
:100DD00001219047206A761C401CBAF1010A20626A
:100DE0000AD1FFF77FFAC0680168405CD4E90121AD
:100DF0009047206A401C2062281EA5F10105DEDC18
:100E000007E0D4E9012118F8010B9047206A401C43
:100E10002062381EA7F10107F3DC2046AFF3008003
:100E2000022011B040E6000001694A1C0261087806
:100E3000704700B58FB0CDE901310021059105491A
:100E40007944CDE9031011466846FFF723FD0FB042
:100E500000BD0000E5FFFFFF30B5B0F10A024FEA28
:100E6000900E71F100034EEA817EB0EB0E0061EB53
:100E700091014FEA101E4EEA017E10EB0E0041EB8D
:100E800011114FEA102E4EEA016E10EB0E0041EBED
:100E900011214FEA104E4EEA014E10EB0E0041EBCD
:100EA0001141401841F100014FEAD00040EA417081
:100EB0004FEAD10110EB80054FEA810444EA9074B7
:100EC00044EB01046D1944EB0404521BA3414FF0A1
:100ED000000348BF0A3200D530BD401C41F100017B
:100EE00030BD00002DE9F0411F460446032601688D
:100EF000072A01F4006004DB08B116A505E016A579
:100F000003E008B115A500E015A521F01000206050
:100F1000A069C01EA0610FB1401EA0612046AFF3C2
:100F200000804FB1D4E9012138469047206A401C27
:100F30002062C01C206206E0206AFAE7D4E90121A1
:100F400015F8010B9047761EF8D22046AFF30080CB
:100F5000BDE8F0814E414E006E616E00494E460084
:100F6000696E66002DE9F047814616468AB035481D
:100F70007844D0E9002380680092CDE901303148FF
:100F800078440C38D0E90223006903924FF037020D
:100F9000CDE9043041F69B30014491FBF2F0A0F121
:100FA000800502FB10141B3C02D56442012000E0C6
:100FB0000020DFF890A080460027FA44AAF1C60A74
:100FC0000DE0E00709D03246684607EB47010AEB1F
:100FD000810100F030FB8DE8070064107F1C002CBD
:100FE000EFD1184F7F44B43F17E0E80713D007EB69
:100FF00004100DF1180A90E80E00AAE80E00C0686F
:10100000F04201D198190890324606A903A800F0D1
:1010100012FB03AB07C36D10641C002DE5D13246F3
:101020006946B8F1000F03A802D000F0F0FA01E021
:1010300000F001FBC9E90001C9F808200AB0BDE8C9
:10104000F0870000401100007546FFF74FF9AE46EB
:1010500005006946534620F00700854618B020B5C4
:10106000FFF79CF8BDE820404FF000064FF0000766
:101070004FF000084FF0000B21F00701AC46ACE840
:10108000C009ACE8C009ACE8C009ACE8C0098D46AD
:1010900070470446AFF300802046FFF76BF800006E
:1010A0004FF0013C50F8042B51F8043B9A4221D1F7
:1010B000A2EB0C03934313EACC1317D150F8042B83
:1010C00051F8043B9A4215D1A2EB0C03934313EA67
:1010D000CC130BD150F8042B51F8043B9A4209D1A0
:1010E000A2EB0C03934313EACC13DBD04FF00000C8
:1010F000704700BFD01A01BAB1FA81F101F01801AE
:1011000022FA01F0CB40C1F12001DBB2C0B2C01A1B
:101110002CFA01F3D11A914311EAC311E6D17047B9
:1011200001491820ABBEFEE7260002005FEA400C32
:1011300008BF91F0000F4FEA8C234FEAC12243EA27
:1011400051514FEA1C5018BF00F5F0404FEA3000F3
:1011500018BF41F000415FEA6C5C00F02980BCF1EF
:10116000FF3F08BF40F080407047130C06BF1204D9
:101170004FF0100C4FF0000C130E04BF12020CF1D4
:10118000080C130F04BF12010CF1040C930F04BFE1
:1011900092000CF1020CD30F04BF52000CF1010CB1
:1011A00011464FF00002A0F11F00A0EB0C007047A9
:1011B00011F0004F08BF704731F000413FF4D5AF48
:1011C0000B0C06BF09044FF0100C4FF0000C0B0E77
:1011D00004BF09020CF1080C0B0F04BF09010CF14C
:1011E000040C8B0F04BF89000CF1020CCB0F04BF61
:1011F00049000CF1010CCCF12003A0EB0C0022FA09
:1012000003F302FA0CF241EA030100F10100704716
:1012100020F07F4C80EA030023F07F47ACEB07030C
:1012200003F57C5300F0004003F1FF032DE98049F2
:101230004FEA154B09B44FEA144325EA0B4E24EA52
:1012400003480FF2042606EB132749083E785FEAAD
:10125000320203FB0667C7F5000707FB06F64FEAF5
:1012600054374FEAD64606F1020607FB066CCCF16E
:10127000005C4FEA1C472CEA074C07FB06F40CFB0A
:1012800006F504EB15464FEA961634BF00204FF0E2
:1012900000404FEAD13706FB07FC4FEA1C4C0CFB21
:1012A0000BF7D21B03FB0CF761EB07010CFB0EF7EE
:1012B000B0EB074072EB17420CFB08F734BFA2EB10
:1012C0000742B2EB074261EB17414FEA0C444FEA89
:1012D000910706FB07FC4FEA1C4C0CFB0BF7B0EB2D
:1012E000C74072EB573203FB0CF734BFA2EBC74287
:1012F000B2EBC74261EB57310CFB0EF7B0EBC70006
:1013000072EB57720CFB08F734BFA2EBC702B2EBCB
:10131000C70261EB5771039F4FEA816141EA921165
:1013200004EBCC044FEAD1374FEA826206FB07FC9C
:1013300042EA90124FEA80604FEA1C4C0CFB0BF71C
:10134000D21B03FB0CF761EB07010CFB0EF7B0EBB4
:10135000074072EB17420CFB08F734BFA2EB0742C1
:10136000B2EB074261EB17414FEA8C554FEA910708
:1013700004EB9C2406FB07FC4FEA1C4C0CFB0BF710
:10138000B0EBC74072EB573203FB0CF734BFA2EB54
:10139000C742B2EBC74261EB57310CFB0EF7B0EB23
:1013A000C70072EB57720CFB08F734BFA2EBC70201
:1013B000B2EBC70261EB577115EB4C254FEA816127
:1013C00041EA92114FEA82624FEAD13742EA901223
:1013D00006FB07FC44F100044FEA80604FEA1C4C16
:1013E0000CFB0BF7D21B03FB0CF761EB07010CFBAB
:1013F0000EF7B0EB074072EB17420CFB08F734BF57
:10140000A2EB0742B2EB074261EB174115EB1C154B
:101410004FEA813141EA92414FEA823242EA9042F8
:101420004FEA80304FEA0C7644F1000448EA034367
:101430004EEA0B484FF0000EB2EB080C71EB0307BD
:1014400024BF624639464EEB0E0E4FF0000B0018DB
:10145000524149414BEB0B0BB2EB080C71EB03070C
:101460007BF1000B24BF624639464EEB0E0E4FF067
:10147000000B0018524149414BEB0B0BB2EB080C2F
:1014800071EB03077BF1000B24BF624639464EEB3C
:101490000E0E51EA020718BF46F0010616EB0E7653
:1014A00055F1000254F1000103D5BDE88901BDE802
:1014B0000088BDE88901BDE80048B619524141EBFA
:1014C0000101A3F10103704780807F7E7D7C7B7AE0
:1014D0007978777676757473727171706F6E6E6DE0
:1014E0006C6C6B6A6A696868676666656464636386
:1014F00062616160605F5F5E5E5D5D5C5C5B5B5A0C
:101500005A59595858575756565555555454535378
:1015100052525251515050504F4F4F4E4E4D4D4DD3
:101520004C4C4C4B4B4B4A4A4A494949484848471E
:10153000474747464646454545444444444343435C
:101540004342424242414141002B26D4770021D000
:101550001CB54FEA370703B44FF010004FF01001ED
:101560004FF000000FBCBDE810400BF1010BBBF1C8
:10157000010F08BF5FEA170722BF12F1010211F144
:1015800001014FF0004143F1000300F0004043EA45
:1015900000007047F9D35708DAE746EA064613F128
:1015A000400F4FEA16461FDD13F1200FDFBF164331
:1015B0000A46002120335B42C8D0C3F1200746EA27
:1015C000064602FA07F74FEA164646EA0706C3F14F
:1015D000200722FA03F201FA07F721FA03F14FF08C
:1015E000000342EA0702B1E746EA020646EA064677
:1015F0004FEA164646EA0106BCBF46EA0646360CE6
:101600004FF000034FF000024FF000019EE72DE97C
:10161000C048934630B491E8380007C831EA400C1E
:1016200048BF34EA430C03D5FFF7F2FDFFF78CFF08
:10163000F0BCBDE800882DE9C048934630B491E87D
:10164000380007C810F0804F08BF13F0804F03D157
:1016500000F005F8FFF778FFF0BCBDE8008820F047
:101660007F4780EA030023F07F4C07EB0C03A3F5D0
:101670007C5300F00040A3F1FE0392F0000F00F055
:10168000B38095F0000F00F077802DE901494FEA13
:1016900011404FEA144621EA004800FB06FC24EA08
:1016A000064708FB06F607FB08F800FB07F718EBF0
:1016B00006484CEB164C4FEA124B18EB07484FEA22
:1016C00015464CEB174022EA0B4E0BFB06FC25EAB5
:1016D00006470EFB06F607FB0EFE0BFB07F71EEB9D
:1016E000064E4CEB164C4FF000061EEB074E4CEB33
:1016F000174B18EB0B0840F1000018EB0E0B58EBE2
:10170000000840F100008F1A4FF000013CBFC943B0
:10171000661B14BFB5EB040C00213CBFC943F61B8C
:101720004FEA17444EEA8E0E27EA04454FEA1C475B
:1017300004FB07622CEA074C05FB07F70CFB05F6D8
:1017400004FB0CFC16EB074642EB174216EB0C466B
:1017500042EB1C421BEB060658EB0202414146EAF3
:101760009E0601D5BDE80189B619524141EB010140
:10177000A3F10103BDE801894FEA14454FEA11477F
:1017800024EA054621EA074C05FB07F406FB07F7A8
:101790000CFB06F105FB0CFC11EB074144EB174475
:1017A0004FEA124711EB0C4144EB1C4422EA074C70
:1017B00005FB07F206FB07F70CFB06F605FB0CFC26
:1017C00016EB074642EB174216EB0C4642EB1C4564
:1017D0006A1854F1000148BF7047B619524141EBF5
:1017E0000101A3F10103704795F0000F37D04FEAD4
:1017F00011424FEA144721EA024624EA074C02FB51
:1018000007F106FB07F70CFB06F402FB0CFC14EBDC
:10181000074441EB17414FEA154714EB0C4441EBE9
:101820001C4125EA074C02FB07F506FB07F70CFBFA
:1018300006F602FB0CFC16EB074645EB174516EBCC
:101840000C4645EB1C42121951F1000148BF70478C
:10185000B619524141EB0101A3F1010370474FEA70
:1018600014454FEA114724EA054621EA074C05FBD7
:1018700007F106FB07F70CFB06F24FF0000605FB2D
:101880000CFC12EB074241EB174112EB0C4251EBFF
:101890001C4148BF7047921841EB0101A3F10103BD
:1018A0007047490050EAC12018BF04204A0D18BFF4
:1018B00040F0010040F2FF72B2EB515F08BF40F010
:1018C0000200012808BF0520704730380A2801D2DD
:1018D000012070470020704710B500290AD0087811
:1018E000002807D005487844FFF7DAFB002801D02C
:1018F000002010BD0248784410BD0000060800001A
:10190000FE07000021F00042A2F16052B2F5801FF4
:1019100001F0004328BFD2F17F6C0BD95FEA001CB5
:1019200043EAC20242EB507018BF704728BF20F054
:1019300001007047B2F5801FBCBF184670474FEAE0
:10194000410C1CF5001F02D2084600F05DBB70B5CB
:1019500000F024FA00000089FFF7F6BF4FF00040C6
:10196000A0F58000704700002DE9C04130B4DFF8D9
:10197000A0C23CEA111418BF3CEA131400F0EC803A
:1019800081EA03051CEA111444EAD57418BF1CEA65
:10199000131500F0C780A4EB05044FF0004545EA9D
:1019A000C12145EAC32341EA505143EA525304F1AD
:1019B0007F74994204F500344FEAC0204FEAC222F6
:1019C00008BF904200F09C804FEA13650FF240166A
:1019D000765D4FEA134506FB05F7C7F1807706FBF6
:1019E00007F74FEAD737A7FB03687642C8F5803878
:1019F000A7FB06CE38BFA8F1010807FB08E64FF0A9
:101A0000000EA6FB028CE6FB03CEDCF1000CCEF14F
:101A1000004E38BFAEF1010EA6FB0C584FF0000788
:101A20004FF00005E6FB0E87A1FB08C6A0FB07CE22
:101A300016EB0E0645F10005E1FB076515F1E04EDA
:101A40007EBFA4F580345FEA46066D4116F180073B
:101A500045F100054FEA17274FEA066647EA056792
:101A6000A6F1DE46B6F1805F4FEA15251FD938464C
:101A700024F0010C05EBC471BCF1FE6F01EB0C11FD
:101A800002D8F0BCBDE8008124425CBF01F5801E95
:101A90009EEAC47F02D4F0BCBDE80081244238D461
:101AA000F0BCA1F1C041BDE8004100F0C5B94FEA6A
:101AB000D22242EA43524FEAD323A7FB02864FEADF
:101AC000D02040EA415007FB03661EEA0E0F4FEAA2
:101AD000D12105FB026658BFA6EB0056B6EB0056B7
:101AE0004FEA520E4EEAC37E18EB0E0E56EB530E23
:101AF000BDD518EB02085E417F1C55F10005B6E725
:101B00004FF480154FF000074FF000064FF000082B
:101B1000ADE7F0BC4FF0000001F1C04101F0004121
:101B2000BDE8008111EA0C1F0CEA131500D00CE08F
:101B300013EA0C1F00F025804FF00000F0BC81EA92
:101B4000030101F00041BDE80081F0BCBDE80041A7
:101B500081EA030100F070B9F0BCBDE8004170B546
:101B600000F01CF9097EFC3E00F007B881EA030191
:101B70004FF0000001F00041704781EA030100F0DE
:101B80005BB9F0BCBDE800414FF00000214970474F
:101B9000FFFDFBF9F7F5F4F2F0EEEDEBE9E8E6E432
:101BA000E3E1E0DEDDDBDAD8D7D5D4D3D1D0CFCDB9
:101BB000CCCBCAC8C7C6C5C4C2C1C0BFBEBDBCBBF2
:101BC000BAB9B8B7B6B5B4B3B2B1B0AFAEADACABED
:101BD000AAA9A8A8A7A6A5A4A3A3A2A1A09F9F9EC7
:101BE0009D9C9C9B9A999998979796959594939379
:101BF000929191908F8F8E8E8D8C8C8B8B8A898910
:101C00008888878786858584848383828281818092
:101C10000000FF070000F87F10F0004248BF40427C
:101C2000B0FA80F310FA03F10AD0C3F11D0303F5F3
:101C300080634FEA415002EB035202EBD12170471F
:101C40004FF0000070470000DFF848C170B51CEA93
:101C5000111E1EBF1CEA13159EEA0C0F95EA0C0F0D
:101C600000F06F8081EA030423EA4C134EEAD47E2D
:101C700021EA4C1141F4801143F48013AE44A1FBDE
:101C8000024CA0FB0365AEF17F7E361955EB0C05C7
:101C9000A1FB034C4CF10003A0FB021C16EB0C064D
:101CA000654153F10003094218BF46F0010613F4E1
:101CB000007F0BD14FEA03314FEA0530340341EA8C
:101CC000155140EA16506FF003020AE04FEAC321B3
:101CD0004FEAC520F40241EA555140EA56506FF0F0
:101CE000020202EB2E4201EB025585EACE710AD0C8
:101CF0005FEA440C18BF24F0004450F1000041F1A9
:101D0000000120EAD47040F2FE7C624500D270BD32
:101D1000A84214BF4FF080444FF04044002E08BF4B
:101D20000024BEF1806FA8BFA1F1C041BDE87040A2
:101D300080F282804FF0000001F1C04101F00041CB
:101D400070479EEA0C0F0CEA131518BF95EA0C0FAA
:101D500006D04FF0000081EA030E0EF0004170BD86
:101D600000F01CF88900013E00F007B800F009B847
:101D70004FEA430C5FEA5C5C08D081EA030100F0A3
:101D80005BB84FEA410C5FEA5C5CF6D14FF00000B3
:101D9000014970470000FF070000F87F0EF1020EB6
:101DA0002EF0030E5EF8046B364205D4012A43EB95
:101DB000030515F5001F12D8012841EB010C1CF595
:101DC000001F0CD80ED14FEAD17C15F5001F0CEB8B
:101DD0004C0C0CF1020C08BF4CEBD37C04E04FF030
:101DE000080C01E04FEAD37C0CEB4C0526FA05F613
:101DF00006F00706B6F1040C06D20EEB860CBDE821
:101E000070404CF0010C6047DFE80CF0090B020257
:101E10004FF000414FF00000A1F5002170BD1946C0
:101E20001046012851EB010418BFD4F5001484BFFB
:101E3000002001F0004170BD0808A0F500114FEA34
:101E40003101704743004FEAD30C4FEA3C0C43404A
:101E50001FBF40070CF1605113F0FE4F70471CF09C
:101E6000006F03D100200CF0004170470CF00043DC
:101E700043EA507010B540EACC0000F07FF800BF94
:101E8000000000924FEA0001FFF7D6BF4FF000417B
:101E90004FF00000A1F500217047401058BFC0F17D
:101EA0004040491058BFC1F140418142EFF30080EA
:101EB0007047000041000B0ED3F19E0208D950F488
:101EC00000034FEA032323FA02F048BF4042704761
:101ED00010B500F053F800BF4992248000207047ED
:101EE0006FF0004282EA200070470000B0FA80F3F1
:101EF00010FA03F2C3F19D030AD0D90501EB1220B9
:101F0000530638BF704700F1010008BF20F0010000
:101F10007047000050EA010C00F113801CF5000F1F
:101F200058BFBCF5000F01D48842704707D710F5A1
:101F3000000F58BF11F5000F15D488427047894231
:101F400070471CF5000F04D5BCF5000FF7D5814292
:101F500070474FF0807C1CEB400F38BF1CEB410FEB
:101F600001D28142704710B500F008F89224490070
:101F70004FF000504FF08051FFF78FBF0EF1020E6F
:101F80002EF0030E5EF8044B244204D44FEA4102C3
:101F9000B2F17F4F11D84FEA4003B3F17F4F0CD815
:101FA0000ED14FEAD07CB2F17F4F0CEB4C0C0CF110
:101FB000020C08BF4CEBD17C04E04FF0080C01E0B0
:101FC0004FEAD17C0CEB4C0324FA03F404F0070431
:101FD000B4F1040C06D20EEB840CBDE810404CF0BA
:101FE000010C6047DFE80CF0070802024FF00040E8
:101FF000A0F5800010BD0846420018BFD2F18072E3
:1020000088BF00F0004010BDFF2141EAD050C0055C
:102010007047000003000000030000000300000000
:1020200002000000020000000100000006000000A5
:102030000C0000008000000002400000000000A032
:102040000000000005400000000000C80000000083
:102050000C4000000000409C0000000019400000FF
:102060000020BCBE0000000034400000BFC91B8E31
:1020700000000004B5400000504BCFD06607E2CF0F
:10208000010000006C4100003E8251AADFEEA7343F
:1020900001000000D9420000DCB5A0E23A301F97F1
:1020A000FFFFFFFFB4450000FD25A0C8E9A3C14F15
:1020B000FFFFFFFFFF3F0000000000800000000066
:1020C000FF3F000000000080000000000821000029
:1020D0000000001034000000080100003C21000056
:1020E0003400001074020000240100001C000000F5
:1020F00043000000F8FFFFFF0C0000000E0000008E
:102100000F0000002E000000C0C62D0000000000DF
:102110000000000000000000881300000000000024
:1021200000000000000000000000000000000000AF
:0C213000000000000000000000000000A3
:040000050000018175
:00000001FF
