:020000040000FA
:100000008803001081010000890100008B010000BD
:100010008D0100008F010000910100000000000030
:10002000000000000000000000000000930100003C
:1000300095010000000000009701000099010000F8
:100040009B0100009B0100009B0100009B01000040
:100050009B0100009B0100009B0100009B01000030
:100060009B0100009B0100009B0100009B01000020
:100070009B0100009B0100009B0100009B01000010
:100080009B0100009B0100009B0100009B01000000
:100090009B0100009B0100009B0100009B010000F0
:1000A0009B0100009B0100009B0100009B010000E0
:1000B0009B0100009B0100009B0100009B010000D0
:1000C0009B0100009B0100009B01000000F002F872
:1000D00000F047F80AA090E8000C82448344AAF19B
:1000E0000107DA4501D100F03CF8AFF2090EBAE899
:1000F0000F0013F0010F18BFFB1A43F0010318475C
:100100001413000034130000103A24BF78C878C1DB
:10011000FAD8520724BF30C830C144BF04680C600D
:10012000704700000023002400250026103A28BF55
:1001300078C1FBD8520728BF30C148BF0B60704759
:10014000642900F05583002070471FB59DE8030027
:1001500000F01CFF00F0FCFB1FBD10B500F061FCBF
:1001600010BD00F0C4FC1146FFF7EFFF00F08DFA60
:1001700000F0B8FE03B4FFF7F0FF03BC01F098F8FD
:100180000948804709480047FEE7FEE7FEE7FEE72B
:10019000FEE7FEE7FEE7FEE7FEE7FEE70448054967
:1001A000034A054B70470000A9040000CD00000081
:1001B00088010010880300108801001053EA020C27
:1001C00000F069802DE9F04B4FF00006002B1FBFB7
:1001D000B3FA83F503FA05F424FA05F65E4012BF7C
:1001E0001643B2FA82F502FA05F4C5F120051EBFE6
:1001F00022FA05FC44EA0C04203556EA044C4FEA86
:10020000144418BF641C4FF000084FF000099042DE
:1002100071EB030C39D3002919BFB1FA81F701FA48
:1002200007F6B0FA80F700FA07F6C7F120071EBFFD
:1002300020FA07FC46EA0C062037B6FBF4FCA7EBD5
:100240000507103F07F01F0BCBF120060CFA0BFB44
:100250002CFA06F644BFB3460026202FA4BF5E4604
:100260004FF0000B5BEA060C08BF4FF0010B19EBD7
:100270000B09ABFB027C48EB0608C01B06FB02CC5B
:100280000BFB03CC71EB0C01C1E70B460246414668
:100290004846BDE8F08B13B54FF000004FF0000169
:1002A000AFF30080BDE81C40704700000FB4044964
:1002B00010B503AA029800F009F810BC5DF814FB11
:1002C000800000107047704770470000074B70B502
:1002D0000D467B4400F029FB0446284600F008F850
:1002E00010B14FF0FF3070BD204670BD17110000F7
:1002F000007B00F08000704770470000FFFFFFFFA9
:100300002DE9F047B1480068C0F3016003287CD1B3
:10031000AF48006810F0030006D0012833D002284F
:100320005FD003282ED100E000BFA8480068C0F3CA
:10033000074000F101044FF00201A648D0F8880000
:10034000C0F30E0000F10100A1FB0001A24B4FF031
:10035000000CA0FB037901FB039100FB0C1122466A
:1003600063463846FFF72AFF05469C480068C0B23E
:1003700000F1010422464FF000032846FFF71EFF5C
:10038000974908605DE091480068C0F3074000F1BC
:1003900001044FF002018F48D0F88800C0F30E002E
:1003A00000F10100A1FB00108E4A4FF0000CA1FBF0
:1003B000027900FB029001FB0C012246634638469D
:1003C000FFF7FCFE054685480068C0B200F1010455
:1003D00022464FF000032846FFF7F0FE80490860F0
:1003E0002FE07A480068C0F3074000F101044FF0A5
:1003F00002017848D0F88800C0F30E0000F1010037
:10040000A1FB00124FF4004000E01BE04FF000039E
:10041000A1FB007902FB009001FB03012246384654
:10042000FFF7CCFE05466D480068C0B200F101043C
:1004300022464FF000032846FFF7C0FE68490860D7
:1004400000BF2FE06248006810F0030006D00128CA
:1004500010D0022819D0032823D100E000BF5F4844
:100460000068C0B200F101005B49B1FBF0F05C49EB
:10047000086016E059480068C0B200F1010059490F
:10048000B1FBF0F0564908600BE054480068C0B278
:1004900000F101004FF40041B1FBF0F05049086059
:1004A00000BF00BFBDE8F08720204F4908604948E1
:1004B000D0F8A00110F0200F05D000BF4A48006816
:1004C00010F0400FFAD00320444908604FF00000BC
:1004D0004049C1F8A801454908604FF001003C4976
:1004E00008604348434908604FF0AA004249086049
:1004F0004FF0550008604FF00100404908604FF090
:10050000AA003D4908604FF055003249C1F88C00FF
:1005100000BF2E48006810F0806FFAD003203749E2
:1005200008604FF0AA002B49C1F88C004FF055002D
:100530003149086000BF2548006800F04070B0F104
:10054000407FF8D123202E4908604FF0AA002149AE
:10055000C1F8AC004FF055002A4908604FF0010087
:10056000294908604FF0AA00264908604FF055005D
:100570001849C1F8AC0000BF2448006810F4806F2F
:10058000FAD00320204908604FF0AA001149C1F8B1
:10059000AC004FF055001B49086000BF1B480068C5
:1005A00000F44070B0F5407FF8D11948194908604F
:1005B0004FF000000749C1F8C8010846006820F460
:1005C000704040F4804008607047000088C00F40D1
:1005D0000CC10F4000C00F4000093D0004C10F4096
:1005E00000000010001BB700A0C10F40ACC10F40BD
:1005F0006300050084C00F408CC00F4080C00F40D6
:10060000A4C00F40ACC00F40A0C00F40A8C00F4016
:10061000DE872804C4C00F4010B5044621464EA012
:10062000FFF744FE10BD10B54F48446904F4F004D0
:1006300054B301204D490870B4F5002F03D10020B8
:100640004B49087013E0B4F5801F03D101204849DD
:1006500008700CE0B4F5001F03D102204449087073
:1006600005E0B4F5800F02D10320414908704148EC
:100670000078401E3E49097801EB80003E49087031
:1006800008460078FFF7C8FF10BDFFF70DFFFFF722
:1006900037FE3A48C06820F47F103849C8600846E1
:1006A000C06820F07F60C8602F48006C40F4705034
:1006B0002D4908640846006A20F0F06008624AE0AC
:1006C00047E001202B49087039E02A4800780128CA
:1006D00003D180022A49086017E0264800780228E2
:1006E00003D18002264908600FE0224800780328E1
:1006F00004D14FF480502249086006E01D4800787C
:10070000042802D1C0021E4908601D4800681D4926
:1007100008604FF470501449C8651948006888652E
:10072000002012490870FFF77EFF1048007801286A
:1007300000D108E00F480078401C0E4908700D48B1
:1007400000780528C1DB00BF08480078012800D1E7
:1007500000E0B6E700BFB3E74B657920436F6465FF
:100760003A2025640A00000000C00920070000109C
:1007700004000010050000100800001000C0024036
:1007800014000010180000102DE9F0410E46044638
:10079000002020622046E168884730B3252805D034
:1007A000D4E901219047206A401CF2E7E168204625
:1007B00000278847050018D0A5F14100192802D864
:1007C00020354FF400673246294620462760FFF760
:1007D000B7FC40B1012804D0F61D26F00706083604
:1007E000D8E7361DD6E72846DAE7206ABDE8F0816B
:1007F0002DE9F0410646002410687529314616A5FA
:1008000011D0AFF30080002803DAC0F1000013A577
:1008100007E031688A0701D511A502E0490704D530
:1008200010A5012401E0AFF3008000210A2306F1A6
:10083000240707E0B0FBF3F203FB120030307854DA
:100840001046491C0028F5D123462A463046BDE80B
:10085000F04100F009B80000000000002D00000089
:100860002B000000200000002DE9F0470D469946BE
:100870009246044600F124080168880604D5E06920
:1008800021F01001216000E00120A84202DDA0EB70
:10089000050700E00027A16907EB050202EB09004C
:1008A000A1EB0000A0612078C00602D42046AFF37F
:1008B0000080002608E0D4E901211AF806009047DC
:1008C000206A401C761C20624E45F4DB2078C0066E
:1008D0000AD52046AFF3008006E0D4E9012130209C
:1008E0009047206A401C2062381EA7F10107F4DC03
:1008F00007E0D4E9012118F805009047206A401C60
:100900002062281EA5F10105F3DC2046AFF300802C
:100910002078000602D50220BDE8F0870120FBE721
:1009200001694A1C02610878704700B58FB0CDE9B3
:1009300001310021059105497944CDE903101146A3
:100940006846FFF721FF0FB000BD0000E5FFFFFF85
:1009500010B54248542100F0D2FA4148542100F029
:10096000CEFA4048542100F0CAFA3F493B483C4A7D
:100970003F4B08603D490A603A491960531C0365C2
:10098000481C1065012008653B48344A39A1784469
:1009900000F00CFA20B9384878440A3800F0A8FA78
:1009A00037482F4A35A1784400F000FA20B934487E
:1009B00078440A3800F09CFA32482A4A2FA1784439
:1009C00000F0F4F920B92F4878440A3800F090FA82
:1009D00040232248DC000021224600F0C3F920B168
:1009E00025487844543800F083FA1D4822464023B5
:1009F000002100F0B7F920B121487844543800F0C4
:100A000077FA184822461023002100F0ABF900289D
:100A100006D01C487844BDE81040563800F068BA4B
:100A200010BD104870B5006D20F001040B4800F0B7
:100A300033FA0B4800F030FA0A4800F02DFA09E0CA
:100A4000206D20F00105204600F026FA204600F037
:100A500073F82C46002CF3D170BD00002C00001060
:100A600080000010D40000102000001024000010AE
:100A70002800001072000000740A000077000000D7
:100A8000600A00004C0A00000EB5CDE9000100F03C
:100A9000EFFB029069460120ABBE0EBD08B569466A
:100AA00000900220ABBE08BD1FB58DE80700694667
:100AB0000520ABBE04B010BD1FB58DE80F00694620
:100AC0000620ABBEF6E708B5694600900920ABBE2C
:100AD00008BD1CB5CDE9000169460A20ABBE1CBDAE
:100AE000704708B5694600900C20ABBE08BD75463E
:100AF00000F02CFAAE4605006946534620F0070088
:100B0000854618B020B5FFF749FBBDE820404FF0FF
:100B100000064FF000074FF000084FF0000B21F0E7
:100B20000701AC46ACE8C009ACE8C009ACE8C009B4
:100B3000ACE8C0098D46704770B50446051F00F04B
:100B400009FA0068002C14BF446870BD002C18BF5F
:100B5000A54284BF20466468F8D801680A18AA42F2
:100B600018BF456003D12A68054611440160286812
:100B70004119A1421CBF6C6070BD61686960216849
:100B80000844286070BD2DE9F04705460C46C8684A
:100B900020F4201040F48000C860800602D508468A
:100BA00000F025FBE06841F282014FF0FF3901407F
:100BB000022903D0204600F0C3FAB8E000F4204137
:100BC000B1F5004F0FD1C00306D56168E06A8842D5
:100BD00000D80846606006E02069E06260606069F5
:100BE000FFF77FFFA061A0680022EEB200280DDAB7
:100BF000E1688B050AD4C043A06041F490302260C4
:100C0000E0606068411C61600670A9E0E0689046A1
:100C1000226040F40050E060206968BB6069FFF723
:100C200052FF012704F12405A0B1A08910F4407FF0
:100C300008D0E06900F0D9F9206118B1E06840F40B
:100C4000006016E0E7612561E06820F4407040F440
:100C500080600EE0E06900F0C8F900282061F1D062
:100C6000E06840F4006010F4407FE06002D140F49E
:100C70008070E06020696060E06825696FF0010ABB
:100C8000C10521D56168E06A884200D80846411B49
:100C900004D02246284600F05DFAF0BBE06801026D
:100CA00003D5E562C4E9015858E005F10101E162AC
:100CB0006160E16940F48030A1F10101C4E90210F2
:100CC00030462E70BDE8F087010202D500F4803274
:100CD0000AE06068411C61600670E0680A2E40F41A
:100CE0008030E06006D00022E16A6068814203D96A
:100CF0000B4602E00122F7E70346A789A3EB0503B1
:100D00007F0503D4E7699F4200DDEAB1814200D844
:100D100001460F1A002BE56200E008E0C4E9015823
:100D200007DD22461946284600F014FA08B1484665
:100D3000C8E74FB1A069E5626560A0EB0700A0615C
:100D4000E06840F01000E060E068000208D56168EB
:100D5000A069E562491B08446560A0615046B1E79F
:100D60003046AFE770B5C468A50713D0650211D44B
:100D7000B2F5807F09D0B2F5007F06D0B2F5806F62
:100D800008D1012300F1240106E05D1E6FF07F46CB
:100D9000B54201D3012070BD0161C361416024F4FB
:100DA00070611143C160002070BD00002DE9F04169
:100DB0000C4607461646104600F06EF82078611C77
:100DC00061280AD0722802D077283CD102E00125A0
:100DD000002405E00225042402E0082448F202056C
:100DE00011F8010B2B2806D0622809D011F8010C4C
:100DF00074280AD00BE045F0030544F00204EFE745
:100E000045F0040544F00104EAE744F010043846D4
:100E10002146FFF739FE411C15D000213161716078
:100E20004FF40071F560F1617061200704D5304620
:100E30000222002100F008F9306D40F00100306519
:100E40003046BDE8F0810020FBE72DE9F0410D467A
:100E50000646104C206DC10704D0410804D020F094
:100E60000104F7E722460EE0542000F0BEF8070028
:100E70000ED0206D47F0010108435421206538460B
:100E800000F03DF83A4629463046BDE8F0418DE78E
:100E90000020D6E72C0000102DE9F04704464FF063
:100EA00000094FF0FF37C568D4E90486A80707D0CA
:100EB000204600F079F93046FFF7F0FD002802DA0D
:100EC0003846BDE8F087280502D54046FFF734FED6
:100ED0004C21204600F013F8206D20F00100206521
:100EE0004846EEE70446AFF300802046FFF742F99C
:100EF00010B500F0A3F9BDE8104000F099B94FF02B
:100F0000000200B5134694469646203922BFA0E859
:100F10000C50A0E80C50B1F12001BFF4F7AF090765
:100F200028BFA0E80C5048BF0CC05DF804EB890056
:100F300028BF40F8042B08BF704748BF20F8022B99
:100F400011F0804F18BF00F8012B70470048704720
:100F500028010010004870473001001070477047AA
:100F60007047704738B504460A4600206946AFF31B
:100F70000080002808BF38BD02460099204600F0D6
:100F8000A4F9012038BD012000F0F5B9F8B5AFF3A0
:100F90000080054600200C46102000BF0646A81918
:100FA000A0420DD9324669460020AFF30080070009
:100FB00008BF00F0E0F90098A04218BF0546C41928
:100FC000FFF7C8FF05600746F01D20F0070046192F
:100FD000284600F073F9B44208BFF8BDA21B3146A1
:100FE0003868BDE8F84000F070B970B50646FFF704
:100FF000B1FF056806F10B0020F00704B4429CBF66
:10100000002070BD2B466A68BAB11068A04210D3A8
:1010100004F1080188423CBF5068586007D351680A
:10102000101941601168091B016058601460101D9F
:1010300070BD13465268002AE7D121462846FFF7C3
:1010400091FF0028DED170BD2DE9F041044616461F
:101050000D464769007B80072ED03846FFF733FDE9
:1010600050BB3EB3012E02D0022E25D104E0204613
:1010700000F045F905441DE03846FFF732FDE16810
:10108000002841F01001E16005DA204600F058F830
:101090000120BDE8F081C9030BD56268E16A914285
:1010A00000D81146A26911442269891A814200DDE3
:1010B00008460544002D01DA0220EAE7E16A60688B
:1010C000E268814206D29103E06203D522F4003146
:1010D00041F01002A6690027AE4213DCE16A8142AA
:1010E00001D90B4600E0034603EB060C2369ACEB89
:1010F000030CAC4506DD814201D98C4600E08446F4
:101100009C4505D1A760276042F02000A5620DE054
:10111000AD1BE669AE1B8142A66000D90846C01A25
:10112000281A20605819606022F020000349084006
:10113000E060002084F84870ABE70000BFCFD7FF25
:10114000C16821F4001141F08001C160002181607B
:10115000016070472DE9F047814614460E464FF076
:10116000FF383248D5685769054209D03846A16929
:10117000FFF7AFFC002811DB2C48C0430540E560B9
:101180002B46324649463846FFF78EFCA16920F0CF
:101190000042B21A11440028A16103D02046FFF793
:1011A000CFFF4046BDE8F08770B504460569C06AC8
:1011B0006168884200D80846E16821F42011E160A6
:1011C000C90312D5A84208D02246411B2846FFF782
:1011D000C1FF10B14FF0FF3070BD0020E562C4E9DF
:1011E0000150E06820F48030E060002070BD10B550
:1011F0000446C06820F02000E060A16AA06988422F
:101200000DD02046FFF7D0FFE06820F4405040F0BA
:101210001000E060A06AA0612069E062606044F2B2
:101220004001E0688843E06010BD0000100002004B
:10123000002801D000F03CB87047000010B501460E
:1012400002A000F07FF8012010BD00005349475272
:10125000545245443A2052656469726563743A2079
:1012600063616E2774206F70656E3A200000000085
:1012700010B5431C02E010F8011B71B18107FAD1CF
:101280004FF0013202C88C1A8C4314EAC211F9D013
:10129000C01A0A0603D0C01E10BDC01A10BD0A0431
:1012A00001D0801E10BD0902FCD0401E10BD000000
:1012B00001491820ABBEFEE72600020000210160B4
:1012C000C0E90110704710207047034640688C4603
:1012D000002818BF814284BF03464068F8D81868C8
:1012E0001844884207D00CF1030020F00700001DCD
:1012F000411A521A0146081D0A60FFF71DBC10B5BD
:101300000146C268900703D0900607D5886A0BE0B3
:1013100000F040F801210160881E10BD8B6948680B
:1013200018440B69A0EB030091F8483023B191F801
:101330004910A0EB010010BD1103FCD50028FADD17
:10134000401E10BD70B505460C460A2000E06D1C1D
:1013500000F018F835B128780028F8D102E0641CB4
:1013600000F010F814B120780028F8D1BDE87040E2
:101370000A2000F007B810B500F010F8BDE81040E2
:10138000FFF756BF08B569468DF800000320ABBED5
:1013900008BD0000004870472801001010B5012862
:1013A00005D0002103A0FFF7CDFF012010BD09A14A
:1013B000F8E7000053494752544D454D3A204F75C8
:1013C00074206F662068656170206D656D6F72793D
:1013D000000000003A2048656170206D656D6F72F5
:1013E0007920636F72727570746564008A68002A70
:1013F00001DCFFF7C8BB521E8A604A68C0B2531CAA
:101400004B60107070473A7474003A7474003A7408
:101410007400000034140000000000102C000000D4
:1014200008010000601400002C0000105C030000A4
:101430002401000000E1F5050000000000000000AC
:10144000000000000000000000000000000000009C
:10145000000000000000000000000000000000008C
:040000050000018175
:00000001FF
